S0150000313730375F4649524D574152452E7372656384
S11300000C94DD000C94FA000C94FA000C94FA00A1
S11300100C94FA000C94FA000C945C010C94FA0011
S11300200C94FA000C94FA000C94FA000C94FA0064
S11300300C94FA000C94FA000C94FA000C94FA0054
S11300400C94FA000C94FA000C94FA000C94FA0044
S11300500C94FA000C94FA000C94FA000C94FA0034
S11300600C94FA000C94BB0A0C94FA000C94FC0057
S11300700C94FA000C94FA000C94FA006E616E0071
S1130080696E660000407A10F35A00A0724E180997
S11300900010A5D4E80000E87648170000E40B54EB
S11300A0020000CA9A3B000000E1F50500008096BA
S11300B09800000040420F000000A08601000000EC
S11300C0102700000000E8030000000064000000A6
S11300D000000A00000000000100000000002C766F
S11300E0D888DC674F0823DFC1DFAE59E1B1B7968A
S11300F0E5E3E453C63AE651997696E8E6C28426E7
S1130100EB898C9B62ED407C6FFCEFBC9C9F40F2C2
S1130110BAA56FA5F490055A2AF75C936B6CF9673E
S11301206DC11BFCE0E40D47FEF520E6B500D0ED03
S1130130902E0300943577050080841E080000206B
S11301404E0A000000C80C333333330F986E128309
S11301501141EF8D2114893BE65516CFFEE6DB18DD
S1130160D1844B381BF77C1D901DA4BBE4242032A2
S113017084725E228100C9F124ECA1E53D274E4141
S11301804E494E495459494E46CDCCCC3D0AD7230D
S11301903C17B7D13877CC2B329595E6241FB14F55
S11301A00A000020410000C84200401C4620BCBE9A
S11301B04CCA1B0E5AAEC59D740011241FBECFEF4E
S11301C0CDBFDFE3DEBF18E3A0E0B8E3E5E6FDE280
S11301D002C005900D92A231B107D9F729E3A2E13B
S11301E0B8E301C01D92A23BB207E1F70E94540A92
S11301F00C948D160C9400001F920F920FB60F9260
S113020011248F939F93AF93BF93EF93FF938091A8
S11302108C3890918D38892BE9F580910008809372
S11302209B388332B1F490919A38911112C081E0D5
S113023080939A3880E8EEEAF8E3DF011D928A950C
S1130240E9F7E0919A38F0E0E355F74C83E28083D4
S113025023C090919A389923D1F0E0919A38F0E034
S1130260E255F74C808390919A389F5F90939A3827
S113027090919A38992314F410929A388D3061F43D
S113028081E090E080938C3890938D3805C0109273
S11302909A3802C080910008E4E0F8E08081806828
S11302A08083FF91EF91BF91AF919F918F910F90B8
S11302B00FBE0F901F9018951F920F920FB60F92BA
S11302C011248F93EF93FF9381E080931038E3E43C
S11302D0F1E0808181608083FF91EF918F910F9095
S11302E00FBE0F901F9018959C01E0E0F0E1928101
S11302F091FDFDCFF901FC5E808108959C01E0E051
S1130300F0E1928191FDFDCFF901FC5E60838DE9FE
S113031084BF83E0809300100895CF92DF92EF9220
S1130320FF920F931F93CF93DF930AEA18E37801A8
S1130330C7E0D0E00F2EFFE3CF2EF9E3DF2EF02D40
S1130340F60180819181A281B3818093AA38909330
S1130350AB38A093AC38B093AD38F70161917F010D
S1130360CE010E947E012196CB30D10549F70F2E94
S1130370FAEAEF2EF8E3FF2EF02D0F2EF2E5CF2E42
S1130380F9E3DF2EF02DF60180819181A281B38102
S11303908093AA389093AB38A093AC38B093AD381F
S11303A0F70161917F01CE010E947E012196CF3039
S11303B0D10549F70F2EF6EAEF2EF8E3FF2EF02DC4
S11303C0F70180819181A281B3818093AA389093AF
S11303D0AB38A093AC38B093AD38F80161918F017C
S11303E0CE010E947E012196C331D10549F7DF91E8
S11303F0CF911F910F91FF90EF90DF90CF900895D0
S1130400EF92FF920F931F93CF93DF9310923F3994
S113041010924039109241391092423980E090E0B4
S1130420A0E8BFE38093523990935339A093543991
S1130430B09355391092A6381092A7381092A83864
S11304401092A938109235391092363910923739F2
S11304501092383980933B3990933C39A0933D39BD
S1130460B0933E3910926C3910926D3910926E39F6
S113047010926F390F2EFEE1EF2EFDEAFF2EF02DC4
S11304800BE419E3C0E0D0E0F70161917F01F801CA
S113049061938F012196CE010E947E01C630D10561
S11304A099F70F2EF5E2EF2EFDEAFF2EF02D03E46F
S11304B019E3C2E2D0E0F70161917F01F801619391
S11304C08F01CE010E947E012196CA32D10599F78F
S11304D0809145399091463980932F3990933039E2
S11304E08FE299E30E94E60C809356391092A33868
S11304F01092A4381092A1381092A23883E090E0B0
S113050080939F389093A0380E948D0161E48FE11D
S113051090E00E947E0163E480E290E00E947E010C
S113052061E481E290E00E947E01DF91CF911F910E
S11305300F91FF90EF90089580E090E00E94740185
S113054008950F931F93CF93DF930BE419E3C0E057
S1130550D0E02196CE010E947401D8018D938D01C3
S1130560C630D105B1F703E419E3C2E2D0E0CE010D
S11305700E947401F80181938F012196CA32D1053A
S1130580B1F7C3E4D9E38C8190E0C0978093A3389A
S11305909093A4388D8190E0C0978093A138909374
S11305A0A2388E8190E0C09780939F389093A038B2
S11305B08881998180932F39909330398FE299E320
S11305C00E94E60C809339398A819B8180932F396C
S11305D0909330398FE299E30E94E60C8093563968
S11305E084E0EAEAF8E3DF011D928A95E9F71092C4
S11305F09938809199388430B0F4C09199388091B9
S1130600993890E007960E947401EC2FF0E0E655CB
S1130610F74C8083809199388F5F809399388091CB
S11306209938843050F3EAEAF8E380819181A28119
S1130630B38180933F3990934039A0934139B0936B
S1130640423984E0DF011D928A95E9F710929938C6
S1130650809199388430B0F4C09199388091993858
S113066090E00B960E947401EC2FF0E0E655F74CF5
S11306708083809199388F5F8093993880919938DD
S1130680843050F3EAEAF8E380819181A281B38156
S11306908093523990935339A0935439B093553978
S11306A084E0DF011D928A95E9F7109299388091D0
S11306B099388430B0F4C09199388091993890E099
S11306C00F960E947401EC2FF0E0E655F74C8083FE
S11306D0809199388F5F80939938809199388430CC
S11306E050F3EAEAF8E380819181A281B381809397
S11306F0A6389093A738A093A838B093A93884E07B
S1130700DF011D928A95E9F7109299388091993802
S11307108430B0F4C09199388091993890E0439630
S11307200E947401EC2FF0E0E655F74C8083809131
S113073099388F5F8093993880919938843050F339
S1130740EAEAF8E380819181A281B381809335390B
S113075090933639A0933739B093383984E0DF0168
S11307601D928A95E9F710929938809199388430CE
S1130770B0F4C09199388091993890E047960E94DE
S11307807401EC2FF0E0E655F74C808380919938A2
S11307908F5F8093993880919938843050F3EAEAD6
S11307A0F8E380819181A281B38180933B39909356
S11307B03C39A0933D39B0933E3984E0DF011D926A
S11307C08A95E9F710929938809199388430B0F479
S11307D0C09199388091993890E04B960E947401A9
S11307E0EC2FF0E0E655F74C8083809199388F5FC9
S11307F08093993880919938843050F38091AA3845
S11308009091AB38A091AC38B091AD3880936C39ED
S113081090936D39A0936E39B0936F39DF91CF9176
S11308201F910F91089520919A38215020939A385E
S11308301092A53830919A3820919A389F938F93CB
S11308407F936F938EE29DEA9F938F9380E890E06D
S1130850831B91099F938F93822F90E08255974C2D
S11308609F938F930E94731480939238909393383C
S113087090919A38890F80939A3880919A3890E0B1
S1130880809394389093953881E090E080939638E3
S1130890909397388DB79EB70A968DBF9EBF0895E3
S11308A08F929F92AF92BF92CF92DF92EF92FF927C
S11308B00F931F93CF93DF93B22EA32E942E852EE6
S11308C020919A38215020939A381092A53830916B
S11308D09A3820919A389F938F937F936F930F2E1A
S11308E0F6E3CF2EFDEADF2EF02DDF92CF92C0E8A3
S11308F0D0E0CE01831B91099F938F93822F90E0C8
S11309008255974C9F938F930E94731480939238CF
S11309109093933890919A38890F80939A38909154
S11309209A3880919A388F929F92AF92BF92DF92B9
S1130930CF929E01291B31093F932F9390E082555A
S1130940974C9F938F930E94731480939238909343
S1130950933890919A38890F80939A3890919A3865
S113096080919A381F930F93FF92EF92DF92CF9268
S1130970C91BD109DF93CF9390E08255974C9F9385
S11309808F930E947314809392389093933890912C
S11309909A38890F80939A3880919A3890E080939E
S11309A094389093953881E090E0809396389093B2
S11309B097388DB79EB74E968DBF9EBFDF91CF916E
S11309C01F910F91FF90EF90DF90CF90BF90AF9069
S11309D09F908F9008956F927F928F929F92AF9283
S11309E0BF92CF92DF92EF92FF920F931F93CF9318
S11309F0DF932091903830919138232B51F44CE5BA
S1130A005FEF69E774E4FC0140835183628373837D
S1130A10D9C020919F383091A03821153105A1F417
S1130A20E0919038F0919138EE0FFF1FEE0FFF1F09
S1130A30E25FF74C4081518162817381FC01408304
S1130A40518362837383BEC04C0180918A38909134
S1130A508B38892B09F467C05901AA0CBB1CA20E60
S1130A60B31EB194A194B1088091903890919138BB
S1130A708A0D9B1D99230CF056C08091903890915B
S1130A80913818161906E4F402E118E3C0E0D0E046
S1130A90C12CD12C7601F8012191319141915191D0
S1130AA08F01C701B6010E94660D6B017C0121967E
S1130AB08091903890919138C817D90764F305C094
S1130AC0C0E0D0E0C12CD12C7601609090387090B9
S1130AD09138FEE1AF0EB11C6A0C7B1C8EE16816E6
S1130AE071040CF05EC08301000F111F000F111F71
S1130AF00E5E174C0F2EFAE8AF2EF8E3BF2EF02D42
S1130B00F80121913191419151918F01C701B601B1
S1130B100E94660D6B017C01A016B10689F7C61907
S1130B20D7096E963EC00091903810919138C90152
S1130B30880F991F280F391F021B130B12F400E0B2
S1130B4010E080919038909191380817190724F596
S1130B505801000F111F000F111F0E5E174CC0E04B
S1130B60D0E0C12CD12C7601F80121913191419131
S1130B7051918F01C701B6010E94660D6B017C0182
S1130B8021962091903830919138CE018A0D9B1D89
S1130B90821793074CF305C0C0E0D0E0C12CD12CE0
S1130BA07601BE01DD0F880B990B0E944B0E9B0151
S1130BB0AC01C701B6010E94D70DF40160837183B3
S1130BC082839383DF91CF911F910F91FF90EF90D8
S1130BD0DF90CF90BF90AF909F908F907F906F9059
S1130BE008958F929F92AF92BF92CF92DF92EF922D
S1130BF0FF920F931F93CF93DF9300D000D0CDB714
S1130C00DEB780918C3890918D38019709F03CC4FF
S1130C109091AF3880913939981307C085E080935B
S1130C209D3881E080939C3824C046E050E06FE317
S1130C307DEA8FEA98E30E941F14892B39F487E038
S1130C4080939D3886E080939C3813C046E050E042
S1130C506BE479E38FEA98E30E941F14892B39F43B
S1130C608BE080939D3886E080939C3802C010927C
S1130C709D388AE28093AE3820919D382A832D7F57
S1130C802983253029F04A814B3009F0CDC27DC338
S1130C906091003870910138FB0101900020E9F760
S1130CA03197AF01461B570B80919C388B83E82EFC
S1130CB0F12C87010155174CC8010E941F14892B80
S1130CC009F050C020919A3830E0EB818E2F90E0EB
S1130CD004962817390709F045C081E399E30E9477
S1130CE0EB04C0903139D0903239E0903339F09030
S1130CF034392091523930915339409154395091BB
S1130D005539C701B6010E94FB0E20913F3930913D
S1130D10403940914139509142390E94660D4B014E
S1130D205C012091A6383091A7384091A8385091A1
S1130D30A938C701B6010E94FB0EA70196010E94C3
S1130D40FB0E9B01AC01C501B4010E94660D6093CA
S1130D5031397093323980933339909334390E9406
S1130D60130462C2FA81F53009F4B0C2F73019F005
S1130D70FB3009F059C26091023870910338FB01CD
S1130D8001900020E9F73197AF01461B570BC801CA
S1130D900E941F14892BB1F420919A3830E04B81C2
S1130DA0842F90E004962817390761F481E080933A
S1130DB0A53880919A3890E0019780939438909365
S1130DC0953839C28981853029F09A819B3009F49C
S1130DD003C32AC26091043870910538FB01019065
S1130DE00020E9F73197AF01461B570BC8010E9459
S1130DF01F14892B29F520919A3830E0EB818E2F2E
S1130E0090E0069628173907D9F4E090A638F090B8
S1130E10A7380091A8381091A938209152393091FF
S1130E205339409154395091553960913F397091FB
S1130E30403980914139909142390E945004F4C163
S1130E40FA81F53009F455C2F73019F0FB3009F096
S1130E50EBC16091063870910738FB0101900020C6
S1130E60E9F73197AF01461B570BC8010E941F14C5
S1130E70892B09F08AC020919A3830E04B81842F65
S1130E8090E08A962817390709F07FC08091A53829
S1130E90813009F07AC014E1E8E5F9E3212F1192D9
S1130EA02A95E9F7F701ED54F74C8CE0A8E5B9E38E
S1130EB001900D928A95E1F788E599E30E94381331
S1130EC060933F397093403980934139909342390C
S1130ED0E8E5F9E3212F11922A95E9F7E0919C388E
S1130EE0F0E0E154F74C8CE0A8E5B9E301900D92F1
S1130EF08A95E1F788E599E30E94381360935239A3
S1130F00709353398093543990935539E8E5F9E354
S1130F1011921A95E9F7E0919C38F0E0E553F74C0B
S1130F208CE0A8E5B9E301900D928A95E1F788E594
S1130F3099E30E9438136093A6387093A73880937E
S1130F40A8389093A93880919A38845280939A381B
S1130F500E948D01E090A638F090A7380091A8383F
S1130F601091A93820915239309153394091543914
S1130F705091553960913F39709140398091413990
S1130F80909142390E9450044FC1F981F53029F003
S1130F902A812B3009F452C247C1609108387091FC
S1130FA00938DB010D900020E9F71197AD01461BCC
S1130FB0570BC8010E941F14892B51F520919A38B0
S1130FC030E04B81842F90E006962817390701F50D
S1130FD080919A38815080939A381092A538A091C4
S1130FE09A38B0E0A255B74C86E0EBE4F9E30190FF
S1130FF00D928A95E1F780919A388A5F80939A38A6
S113100080919A3890E0809394389093953813C1E6
S11310108A81853009F480C1873009F490C18B300E
S113102009F4A0C101C120919A3830E0EB818E2FE0
S113103090E004962817390701F580919A38815079
S113104080939A381092A538A0919A38B0E0A255AE
S1131050B74C88E0E3E4F9E301900D928A95E1F757
S113106080919A38885F80939A3880919A3890E07A
S11310708093943890939538DEC0F981F53021F04F
S11310802A812B3009F0D0C060910C3870910D3852
S1131090FB0101900020E9F73197AF01461B570B84
S11310A0C8010E941F14892B09F0BEC020919A38F0
S11310B030E04B81842F90E00496281739070CF414
S11310C0B3C08091A538813009F0AEC080919A38C0
S11310D0815080939A381092A538F701EF54F74C59
S11310E08081918180932F39909330398FE299E3F5
S11310F00E94E60C80932E39E0919C38F0E0ED5488
S1131100F74C8081918180932F39909330398FE20D
S113111099E30E94E60C89838093513980912E399A
S11311208A838132F8F020E030E04CEF52E46091A1
S113113031397091323980913339909134390E9428
S1131140D20D18167CF0E0919C38F0E0A3E4B9E3EA
S1131150E255F74C83818C93848111968C939A8108
S113116090933939E981E23021F08E2F8450843014
S1131170C8F480915639F981F81719F081E0809309
S11311809E38298120935639E0919C38F0E0A3E4FD
S1131190B9E3E255F74C858112968C9312978681B8
S11311A013968C93E0919C38F0E0E255F74C47811C
S11311B0A3E4B9E314964C931497208515962C93C5
S11311C01597818516968C93169750E040535109D4
S11311D04093A3385093A43830E02053310920932E
S11311E0A1383093A23890E0C09780939F389093B1
S11311F0A0388D0182E290E08B839C83F801619199
S11312008F018B819C810E947E018B819C81019640
S11312108B839C838A9791F780919A3890E080938E
S113122094389093953807C0809196389091973868
S1131230019709F042C01092963810929738809125
S1131240A1389091A2380097E1F01092983820913B
S1131250983830E028173907A4F4E2E6F3E0319730
S1131260F1F700C0809198388F5F8093983880910F
S1131270983890E02091A1383091A23882179307D2
S113128064F34091A3385091A438609194388EEA65
S113129098E30E94080D80919E38882371F0FAE249
S11312A02CE24AE0F15020404040E1F70000109267
S11312B09E38809156390E94710C10929D3810927C
S11312C09A3810928C3810928D38DEC060910238B2
S11312D070910338FB0101900020E9F73197AF01C9
S11312E0461B570BC8010E941F14892B09F468C0C0
S11312F086C06091063870910738FB010190002088
S1131300E9F73197AF01461B570BC8010E941F1420
S1131310892B09F487C0A5C060910A3870910B38F5
S1131320FB0101900020E9F73197AF01461B570BF1
S1131330C8010E941F14892B09F0A6CE74CE6091B7
S11313400A3870910B38FB0101900020E9F73197BE
S1131350AF01461B570BC8010E941F14892B09F0CB
S113136093CE61CE60910A3870910B38FB010190E5
S11313700020E9F73197AF01461B570BC8010E94C3
S11313801F14892B09F44FCE7FCE609100387091E1
S11313900138FB0101900020E9F73197AF01461BAA
S11313A0570B80919C388B83E82EF12C87010155D3
S11313B0174CC8010E941F14892B09F483CCDBCC81
S11313C020919A3830E0EB818E2F90E00496281714
S11313D0390709F0FFCCEACC6091043870910538E4
S11313E0FB0101900020E9F73197AF01461B570B31
S11313F0C8010E941F14892B09F4FDCC2ACD6091E9
S1131400043870910538FB0101900020E9F7319709
S1131410AF01461B570BC8010E941F14892B09F00A
S113142068CFE9CC20919A3830E0FB818F2F90E08F
S11314308A962817390709F0B0CD28CD609108386D
S113144070910938FB0101900020E9F73197AF0151
S1131450461B570BC8010E941F14892B09F4AECDFB
S113146081CF6091083870910938FB010190002008
S1131470E9F73197AF01461B570BC8010E941F14AF
S1131480892B09F049CF9ACD2496CDBFDEBFDF91D9
S1131490CF911F910F91FF90EF90DF90CF90BF906D
S11314A0AF909F908F90089510924701E1E4F1E08E
S11314B0808182FDFDCF80E090E880934A01909383
S11314C04B01E0E4F1E081E0828380830E949C028E
S11314D0813039F061E080E090E00E947E010E945A
S11314E000020E94A102809156390E94710C0E9450
S11314F0F90A0E94170B7894C1E0D0E00E94F1052C
S1131500809110388823D1F310921038809190384C
S1131510909191384E9744F01092903810929138EF
S1131520C0938A38D0938B3820918E3830918F387D
S113153080919038909191382817390744F480911C
S113154090389091913880938E3890938F38809111
S11315509038909191389C012F5F3F4F20939038A1
S113156030939138880F991F880F991F8E5E974C7E
S11315700E942A0BC3CF1F920F920FB60F92112411
S11315802F933F934F935F936F937F938F939F9387
S1131590AF93BF93EF93FF9386E899E30E94580CAF
S11315A0FF91EF91BF91AF919F918F917F916F9137
S11315B05F914F913F912F910F900FBE0F901F900D
S11315C01895CF93DF931F92CDB7DEB7E1E0F2E039
S11315D08081806180838BE08983298140EC60E194
S11315E078E086E899E30E947E0B0F90DF91CF911B
S11315F008950E94E10A089561157105B1F0FC0196
S1131600680F791F8FEF91E32191822728E030E062
S113161088231CF4880F892701C0880F21503109C1
S1131620B9F7E617F70781F708958FEF0895E0E813
S1131630F9E381E2808380E3818322E0AF016AE4FD
S113164086E899E30E94D80B82EC92EA0197F1F7BD
S113165000C00895CF93DF93EC01E0E8F9E380EE56
S11316608083118222E0AF016AE486E899E30E9454
S1131670D80B82EC92EA0197F1F700C043E06AE4E8
S113168086E899E30E94DE0B8DE890E20197F1F77A
S1131690000062E070E08AE999E30E94FC0A9091FC
S11316A09C39891320C0E6E8F9E36489858970E0F0
S11316B0762F6627680F711D80E090E00E94490E26
S11316C020E030E04FE253E40E94FB0E20E03FEFC5
S11316D04FE757E40E94D70D20E030E044E352E4A2
S11316E00E94650D04C06CE57FEF89E794E468838C
S11316F079838A839B83DF91CF910895FC01608372
S113170071834160DB0113964C93A081B1811696DD
S11317102C930190F081E02D81E0858308950F934F
S1131720CF93DF93EC012231C0F50131C0F588A5D8
S1131730811137C081E088A719A6660F6A83222326
S1131740A1F0E42FF52F6FEF620F70E06F5F7F4F12
S113175040E050E09191DE01A40FB51F13969C93D5
S11317604F5F5F4F46175707A9F72CA30DA31EA27F
S11317701FA28CA1882339F08A818E7FE881F981A8
S1131780878381E011C08DA1882369F08A818160FB
S1131790E881F981878381E007C080E005C080E0AB
S11317A003C080E001C081E0DF91CF910F910895E3
S11317B00F9300E00E948F0B0F9108950F93042F55
S11317C020E040E050E00E948F0B0F910895FC014F
S11317D0A081B18115969C91159792FF03C084E076
S11317E081A702C083E081A7986015969C9310A6F8
S11317F00895CF93DF93FC0194A125A1A081B18129
S113180015968C91159784FF07C083E014968C93EA
S113181085E081A710A61CC086A1891758F486A16B
S1131820EF01C80FD11D8B8118968C9386A18F5F11
S113183086A30EC087A1821728F48281816017963F
S11318408C9306C083E014968C9381E081A710A644
S1131850DF91CF910895FC0187A1803170F4A081BC
S1131860B18118968C9197A1DF01A90FB11D5496EF
S11318708C9387A18F5F87A308C0A081B18183E087
S113188014968C9382E081A710A695A187A189174D
S113189030F40190F081E02D82E084830895A081EA
S11318A0B18187E014968C9381E081A710A60895F6
S11318B0DC01ED91FC912581322F3C7019F00E94DE
S11318C0E70B089526FF03C00E94F90B0895222315
S11318D01CF40E942B0C089526E0FC0121A710A6FD
S11318E00895853071F028F48230B9F0843031F0F5
S11318F011C0863049F0873051F00CC020E03BE441
S11319000EC020EB34E00BC020EC32E108C02CE226
S113191031E005C02CE231E002C020E835E2032EBC
S1131920000C440B550B64E573E78BEC90E00E94CC
S1131930E512E0E2F4E0808184608083A4E2B4E014
S11319408C9184608C938081877F80838081816087
S11319508083832F992787FD9A9580930908209384
S11319600808E5E0F8E080818160808380818068F8
S1131970808380EC8093060883E080930708E4E08A
S1131980F8E08081807880830895E4E0F8E0908135
S113199095FFFDCF8093020808958A3010F4805D8E
S11319A00895895C08951F93CF93DF93182FEB015B
S11319B082958F700E94CD0C8883812F8F700E9436
S11319C0CD0C8983DF91CF911F910895FC01208173
S11319D090ED920F9A3020F4892F8295807F0AC06F
S11319E08FEB820F863028F42753822F8295807FD5
S11319F001C080E0918120ED290F2A3010F4820F7C
S1131A0008952FEB290F263010F49753890F08956A
S1131A10AF92BF92CF92DF92EF92FF920F931F93F8
S1131A20CF93DF9300D0CDB7DEB74130510519F025
S1131A3061112BC03AC06623C9F08C016150262F76
S1131A4030E02F5F3F4F7C01E20EF31EC12CD12CFE
S1131A505801F80181918F010E94C50CF501808124
S1131A60C80ED11CE016F10699F702C0C12CD12C86
S1131A70BE016F5F7F4F8C2D0E94D30C89810E9421
S1131A80C50C8A810E94C50C10C08C01615070E0A5
S1131A906F5F7F4F7C01E60EF71EF80181918F0185
S1131AA00E94C50C0E151F05C1F78DE00E94C50CE0
S1131AB00F900F90DF91CF911F910F91FF90EF90B6
S1131AC0DF90CF90BF90AF9008955058BB27AA27BE
S1131AD00E947D0D0C94C10E0E94B30E38F00E943A
S1131AE0BA0E20F039F49F3F19F426F40C94B00E8A
S1131AF00EF4E095E7FB0C94AA0EE92F0E94D20E97
S1131B0058F3BA17620773078407950720F079F42E
S1131B10A6F50C94F40E0EF4E0950B2EBA2FA02D1E
S1131B200B01B90190010C01CA01A0011124FF2786
S1131B30591B99F0593F50F4503E68F11A16F04081
S1131B40A22F232F342F4427585FF3CF4695379580
S1131B502795A795F0405395C9F77EF41F16BA0B45
S1131B60620B730B840BBAF09150A1F0FF0FBB1FF3
S1131B70661F771F881FC2F70EC0BA0F621F731F3C
S1131B80841F48F4879577956795B795F7959E3F99
S1131B9008F0B0CF9395880F08F09927EE0F97952A
S1131BA0879508950E94860E08F481E008950E94A6
S1131BB0EB0D0C94C10E0E94BA0E58F00E94B30EA5
S1131BC040F029F45F3F29F00C94AA0E51110C94B3
S1131BD0F50E0C94B00E0E94D20E68F39923B1F363
S1131BE0552391F3951B550BBB27AA27621773073F
S1131BF0840738F09F5F5F4F220F331F441FAA1FD3
S1131C00A9F335D00E2E3AF0E0E832D0915050408E
S1131C10E695001CCAF72BD0FE2F29D0660F771F3C
S1131C20881FBB1F261737074807AB07B0E809F022
S1131C30BB0B802DBF01FF2793585F4F3AF09E3FA7
S1131C40510578F00C94AA0E0C94F50E5F3FE4F362
S1131C50983ED4F3869577956795B795F7959F5FEA
S1131C60C9F7880F911D9695879597F90895E1E036
S1131C70660F771F881FBB1F621773078407BA0795
S1131C8020F0621B730B840BBA0BEE1F88F7E095F0
S1131C900895E89409C097FB3EF49095809570955B
S1131CA061957F4F8F4F9F4F9923A9F0F92F96E9A4
S1131CB0BB279395F695879577956795B795F11119
S1131CC0F8CFFAF4BB0F11F460FF1BC06F5F7F4FB6
S1131CD08F4F9F4F16C0882311F096E911C07723C8
S1131CE021F09EE8872F762F05C0662371F096E8D1
S1131CF0862F70E060E02AF09A95660F771F881FA0
S1131D00DAF7880F9695879597F90895990F000843
S1131D10550FAA0BE0E8FEEF16161706E807F907B9
S1131D20C0F012161306E407F50798F0621B730B54
S1131D30840B950B39F40A2661F0232B242B252BD5
S1131D4021F408950A2609F4A140A6958FEF811D78
S1131D50811D089597F99F6780E870E060E0089519
S1131D609FEF80EC089500240A94161617061806AF
S1131D700906089500240A9412161306140605068B
S1131D800895092E0394000C11F4882352F0BB0F1C
S1131D9040F4BF2B11F460FF04C06F5F7F4F8F4F7F
S1131DA09F4F089557FD9058440F551F59F05F3FBA
S1131DB071F04795880F97FB991F61F09F3F79F069
S1131DC087950895121613061406551FF2CF4695EB
S1131DD0F1DF08C0161617061806991FF1CF86956D
S1131DE07105610508940895E894BB276627772751
S1131DF0CB0197F908950E940E0F0C94C10E0E9416
S1131E00B30E38F00E94BA0E20F0952311F00C9412
S1131E10AA0E0C94B00E11240C94F50E0E94D20E4E
S1131E2070F3959FC1F3950F50E0551F629FF00129
S1131E30729FBB27F00DB11D639FAA27F00DB11D42
S1131E40AA1F649F6627B00DA11D661F829F2227CB
S1131E50B00DA11D621F739FB00DA11D621F839F52
S1131E60A00D611D221F749F3327A00D611D231F28
S1131E70849F600D211D822F762F6A2F11249F5776
S1131E8050409AF0F1F088234AF0EE0FFF1FBB1F79
S1131E90661F771F881F91505040A9F79E3F510538
S1131EA080F00C94AA0E0C94F50E5F3FE4F3983E78
S1131EB0D4F3869577956795B795F795E7959F5FE2
S1131EC0C1F7FE2B880F911D9695879597F9089574
S1131ED0A0E1B0E0EEE6FFE00C9407137C011B01E7
S1131EE06A01FC0116821782838181FF44C39E012B
S1131EF02F5F3F4F3901F7019381F10193FD8591E4
S1131F0093FF81911F01882309F431C3853239F489
S1131F1093FD859193FF81911F01853239F4B701B7
S1131F2090E00E94371456016501E5CF10E0512C72
S1131F30912CFFE1F915D8F08B3279F038F4803226
S1131F4079F08332A1F4F92DF0612EC08D3261F065
S1131F50803369F4292D21602DC0392D3260932EF0
S1131F60892D8460982E2AC0E92DE86015C097FC5D
S1131F702DC020ED280F2A3088F496FE06C03AE0E2
S1131F80139F200D1124122F19C08AE0589E200D92
S1131F901124522EE92DE0629E2E10C08E3231F4AF
S1131FA096FCE5C2F92DF0649F2E08C08C3621F40E
S1131FB0292D2068922E02C0883641F4F10193FD48
S1131FC0859193FF81911F018111B3CF9BEB980FF2
S1131FD0933020F4992D9061805E07C09BE9980F9F
S1131FE0933008F066C1992D9F7E96FF16E09F738B
S1131FF0992E853619F49064992E08C0863621F4FA
S1132000392F3068932E02C01111115097FE07C06A
S11320101C3350F444244394410E27E00BC0183081
S113202038F027E017E005C027E09CE3492E02C002
S1132030212F412C560184E0A80EB11CF6016081C9
S1132040718182819381042DA3010E943C136C0150
S1132050F981FC87F0FF02C0F3FF06C091FC06C0C3
S113206092FE06C000E205C00DE203C00BE201C00F
S113207000E08C858C7019F001115AC29BC297FE46
S113208010C04C0CFC85F4FF04C08A81813309F430
S11320904A94141474F528E0241578F588E0482E41
S11320A02CC096FC2AC0812F90E08C159D059CF0D5
S11320B03CEFC3163FEFD30674F0892D8068982E49
S11320C00AC0E2E0F0E0EC0FFD1FE10FF11D80819A
S11320D0803319F411501111F4CF97FE0EC044242B
S11320E04394410E812F90E0C816D9062CF41C1994
S11320F004C04424439401C010E097FE06C01C149D
S11321001D0434F4C601019605C085E090E002C0C8
S113211081E090E001110196112331F0212F30E08C
S11321202F5F3F4F820F931F252D30E082179307B7
S113213014F4581A01C0512C892D897049F4552082
S113214039F0B70180E290E00E9437145A94F7CF37
S1132150002329F0B701802F90E00E94371493FCEC
S113216009C0552039F0B70180E390E00E9437148C
S11321705A94F7CF97FE4CC04601D7FE02C0812C7B
S1132180912CC60188199909F301E80FF91FED870D
S1132190FE879601241931092F87388B012F10E00F
S11321A01195019511093FEF8316930629F4B701A0
S11321B08EE290E00E943714C814D9044CF08F8545
S11321C098898815990524F4ED85FE85818101C0DF
S11321D080E3F1E08F1A91082D853E852F5F3F4FF4
S11321E02D873E87801691062CF0B70190E00E945F
S11321F03714D9CFC814D90441F49A81963320F402
S1132200953319F43C8534FF81E3B70190E04EC067
S11322108A81813319F09C859F7E9C87B70190E069
S11322200E943714111105C094FC18C085E690E093
S113223017C0B7018EE290E00E9437141E5F82E05F
S113224001E0080FF301E80FF11D8081B70190E070
S11322500E943714802F0113F3CFE6CF85E490E07A
S1132260B7010E943714D7FC06C0C114D10441F44D
S1132270EC85E4FF05C0D194C194D1088DE201C07E
S11322808BE2B70190E00E94371480E32AE0C21683
S1132290D1042CF08F5FFAE0CF1AD108F7CFB70141
S11322A090E00E943714B701C601C0960E9437140B
S11322B054C1833631F0833779F0833509F056C041
S11322C020C0560132E0A30EB11CF601808189833F
S11322D001E010E0630112C05601F2E0AF0EB11C40
S11322E0F601C080D18096FE03C0612F70E002C069
S11322F06FEF7FEFC6010E942C148C01F92DFF773C
S113230014C0560122E0A20EB11CF601C080D18097
S113231096FE03C0612F70E002C06FEF7FEFC6012D
S11323200E9414148C01F92DF0689F2EF3FD1AC03D
S1132330852D90E008171907A8F4B70180E290E012
S11323400E9437145A94F4CFF60197FC859197FEB6
S113235081916F01B70190E00E94371451105A9493
S1132360015011090115110579F7F7C0843611F0F0
S1132370893661F5560197FE09C024E0A20EB11C0E
S1132380F60160817181828193810AC0F2E0AF0E0F
S1132390B11CF60160817181072E000C880B990B2A
S11323A0F92DFF769F2E97FF09C090958095709523
S11323B061957F4F8F4F9F4FF0689F2E2AE030E04A
S11323C0A3010E94A314C82EC6183FC0092D853747
S11323D021F40F7E2AE030E01DC0097F8F3691F092
S11323E018F4883559F0C3C0803719F0883711F0D4
S11323F0BEC0006104FF09C0046007C094FE08C0A9
S1132400066006C028E030E005C020E130E002C0EC
S113241020E132E0560107FF09C084E0A80EB11C98
S1132420F601608171818281938108C0F2E0AF0E70
S1132430B11CF6016081718180E090E0A3010E94EB
S1132440A314C82EC6180F77902E96FE0BC0092D24
S11324500E7FC11650F494FE0AC092FC08C0092DE8
S11324600E7E05C0DC2C092D03C0DC2C01C0D12E4E
S113247004FF0DC0FE01EC0DF11D8081803311F4C9
S1132480097E09C002FF06C0D394D39404C0802FF0
S1132490867809F0D39403FD11C000FF06C01C2DFB
S11324A0D51480F4150D1D190DC0D51458F4B701B9
S11324B080E290E00E943714D394F7CFD51410F43F
S11324C05D1801C0512C04FF10C0B70180E390E0F7
S11324D00E94371402FF17C001FD03C088E790E093
S11324E002C088E590E0B7010CC0802F867859F0CF
S11324F001FF02C08BE201C080E207FD8DE2B7015B
S113250090E00E943714C11638F4B70180E390E0DC
S11325100E9437141150F7CFCA94F301EC0DF11D4A
S11325208081B70190E00E943714C110F5CF15C027
S1132530F4E0F51560F584E0581A93FE1FC001110C
S113254027C02C8523FF2AC00CE710E0392D3071F9
S1132550932EF8018491811124C0552009F4E4CC10
S1132560B70180E290E00E9437145A94F6CFF70145
S11325708681978126C08FEF9FEF23C0B70180E249
S113258090E00E9437145A945110F8CFD8CF512CB0
S1132590B701802F90E00E943714D3CF00E810E0F9
S11325A0D5CF91108052B70190E00E9437140F5F8D
S11325B01F4FCFCF23E0251510F483E0BDCF512C5E
S11325C0C0CF6096E2E10C942013A1E21A2EAA1B5C
S11325D0BB1BFD010DC0AA1FBB1FEE1FFF1FA217CF
S11325E0B307E407F50720F0A21BB30BE40BF50BCC
S11325F0661F771F881F991F1A9469F76095709555
S1132600809590959B01AC01BD01CF0108952F9257
S11326103F924F925F926F927F928F929F92AF926E
S1132620BF92CF92DF92EF92FF920F931F93CF93BB
S1132630DF93CDB7DEB7CA1BDB0BCDBFDEBF09947A
S11326402A88398848885F846E847D848C849B843E
S1132650AA84B984C884DF80EE80FD800C811B814C
S1132660AA81B981CE0FD11DCDBFDEBFED01089582
S1132670662777270C940115283008F027E03327C4
S1132680DA01990F311D87FD91600096610571058E
S113269039F432602E5F3D9330E32A95E1F70895D3
S11326A09F3F30F080387105610509F03C5F3C5F65
S11326B03D93913008F08068911DDF93CF931F9371
S11326C00F93FF92EF92192F987F9695E92F969585
S11326D09695E90FFF27E252FF4F99273327EE24FF
S11326E0FF24A701E70105900894079428F4360F06
S11326F0E71EF81E491F511D660F771F881F991F7B
S11327000694A1F70590079428F4E70EF81E491FD4
S1132710561FC11D770F881F991F661F0694A1F7C6
S11327200590079428F4F80E491F561FC71FD11DA2
S1132730880F991F661F771F0694A1F705900794C9
S113274020F4490F561FC71FD81F990F661F771F04
S1132750881F0694A9F784911095177041F0D695B7
S1132760C79557954795F794E7941A95C1F7E4E808
S1132770F0E06894159015913591659195910590C7
S11327807FE27395E118F10A430B560BC90BD0098C
S1132790C0F7E10CF11E431F561FC91FD01D7EF464
S11327A0703311F48A95E6CFE894015030F0080FA5
S11327B00AF40027021708F4202F2395022F7A33F6
S11327C028F079E37D932A95E9F710C07D932A9543
S11327D089F6069497956795379517951794E11898
S11327E0F10A430B560BC90BD00998F023957E913F
S11327F073957A3308F070E37C932013B8F77E91D5
S113280070617D9330F0839571E37D9370E32A9535
S1132810E1F71124EF90FF900F911F91CF91DF9179
S1132820992787FD90950895FC01059061507040AB
S11328300110D8F7809590958E0F9F1F0895FB0186
S1132840DC0104C08D910190801921F44150504065
S1132850C8F7881B990B0895FC01615070400190E2
S11328600110D8F7809590958E0F9F1F08950F93B0
S11328701F93CF93DF93FB01238121FD03C08FEFCF
S11328809FEF2CC022FF16C04681578124813581D9
S11328904217530744F4A081B1819D012F5F3F4F3C
S11328A0208331838C93268137812F5F3F4F26838A
S11328B0378314C08B01EC01FB010084F185E02D0A
S11328C00995892BE1F6D80116968D919C9117975D
S11328D0019616968D939C931797CE01DF91CF9115
S11328E01F910F910895AEE0B0E0E9E7F4E10C9494
S11328F015130D891E898F89988D26E02C830983F1
S11329001A8397FF02C080E090E801978D839E832D
S1132910AE01455E5F4F698D7A8DCE0101960E94AE
S1132920680F4D815E8157FD0AC02F81388542179B
S113293053070CF49A01F801E20FF31F10822E964C
S1132940E4E00C942E13FA01AA27283051F1203127
S113295081F1E8946F936E7F6E5F7F4F8F4F9F4F2F
S1132960AF4FB1E03ED0B4E03CD0670F781F891F71
S11329709A1FA11D680F791F8A1F911DA11D6A0F3F
S1132980711D811D911DA11D20D009F468943F91F2
S11329902AE0269F11243019305D3193DEF6CF01F1
S11329A00895462F4770405D4193B3E00FD0C9F7B7
S11329B0F6CF462F4F70405D4A3318F0495D31FD24
S11329C04052419302D0A9F7EACFB4E0A695979577
S11329D0879577956795BA95C9F70097610571054D
S11329E008959B01AC010A2E069457954795379597
S11329F02795BA95C9F7620F731F841F951FA01DF1
S1132A000895A0E0B0E0E7E0F5E10C940D13EC01CB
S1132A106B016115710519F0FB01808391837E01BF
S1132A20FFEFEF1AFF0A0881802F90E00E944F16F3
S1132A30892B11F0E701F3CF0D3239F47E0182E0E6
S1132A40E80EF11C098111E008C00B3229F47E0163
S1132A5092E0E90EF11C098110E0E701219743E0BF
S1132A6050E066E871E0CE010E945816892BC1F44B
S1132A70239645E050E061E871E0CE010E945816CB
S1132A80892B09F42596C114D10419F0F601C083E9
S1132A90D1831111F6C060E070E080E89FE7FAC0CE
S1132AA043E050E06EE771E0CE010E945816892B96
S1132AB059F4C114D10409F4E9C0F2E0EF0EF11C99
S1132AC0F601E082F182E2C020E030E0A901C0E03A
S1132AD0D0E0F70180EDA82EA00E89E08A1530F130
S1132AE0912F9260B92E812F887012FF04C081113A
S1132AF024C0219622C081112197A5E0B0E00E9454
S1132B007316DC01CB01880F991FAA1FBB1F9C0100
S1132B10AD012A0D311D411D511D283989E93807A0
S1132B20480789E1580748F0166006C09EEFA912CD
S1132B300AC013FD40C01860B12E8FEFE81AF80ADE
S1132B4000811B2DC6CF802F8F7D8534A1F5808118
S1132B508D3211F4106106C08B3221F0319661E0A0
S1132B6070E004C08181329662E070E080538A3064
S1132B7018F0E61BF70B1FC060E070E060389CE0C3
S1132B8079075CF4DB01AA0FBB1FAA0FBB1F6A0FF6
S1132B907B1F660F771F680F711D3196DF01119738
S1132BA08C9180538A3050F314FF03C07195619562
S1132BB07109C60FD71F11FF08C0C114D10429F031
S1132BC0CF010197F60180839183CA01B9010E9464
S1132BD0490E212F2370233019F04B015C0106C0EC
S1132BE04B015C01B7FAB094B7F8B09420E030E040
S1132BF0A901C501B4010E94D20D882309F43EC085
S1132C00D7FF06C0D195C195D1090DE911E002C0E5
S1132C1005EB11E06801F8E1CF1AD10890E2E92E42
S1132C20F12CCE15DF0574F0F8012591359145910D
S1132C305491C501B4010E94FB0E4B015C01CE19F5
S1132C40DF09EFCF04501109F594E7940C151D0525
S1132C5041F78A2D880F8B2D881F8F3F49F020E084
S1132C6030E0A901C501B4010E94D20D811106C052
S1132C7082E290E08093B0399093B139C501B401F8
S1132C8009C060E070E080E89FEF04C060E070E09D
S1132C9080EC9FE7CDB7DEB7ECE00C9426139111DE
S1132CA00C947016803219F089508550C8F7089535
S1132CB0FB01DC014150504088F08D9181341CF0BF
S1132CC08B350CF4805E659161341CF06B350CF42B
S1132CD0605E861B611171F3990B0895881BFCCF0C
S1132CE09927882708950E947E16A59F900DB49F6A
S1132CF0900DA49F800D911D11240895A29FB001F1
S1132D00B39FC001A39F700D811D1124911DB29F1B
S1112D10700D811D1124911D0895F894FFCFBC
S1132D1E30374130303800343130323030333000D7
S1132D2E252B30392E326600252B3031322E344588
S1132D3E0039393939393900524400574500524364
S1132D4E414C005743414C005253524E00525300D3
S10A2D5E53550052535400C9
S1132D6546AD49AD4CAD51AD56AD5BAD5EAD61AD56
S1052D75010057
S9030000FC
