S01C000074656D705F73656E736F725F74656D706C6174652E737265639E
S11300000C94DD000C94FA000C94FA000C94FA00A1
S11300100C94FA000C94FA000C9482010C94FA00EB
S11300200C94FA000C94FA000C94FA000C94FA0064
S11300300C94FA000C94FA000C94FA000C94FA0054
S11300400C94FA000C94FA000C94FA000C94FA0044
S11300500C94FA000C94FA000C94FA000C94FA0034
S11300600C94FA000C945C010C94FA000C94FC00BF
S11300700C94FA000C94FA000C94FA006E616E0071
S1130080696E660000407A10F35A00A0724E180997
S11300900010A5D4E80000E87648170000E40B54EB
S11300A0020000CA9A3B000000E1F50500008096BA
S11300B09800000040420F000000A08601000000EC
S11300C0102700000000E8030000000064000000A6
S11300D000000A00000000000100000000002C766F
S11300E0D888DC674F0823DFC1DFAE59E1B1B7968A
S11300F0E5E3E453C63AE651997696E8E6C28426E7
S1130100EB898C9B62ED407C6FFCEFBC9C9F40F2C2
S1130110BAA56FA5F490055A2AF75C936B6CF9673E
S11301206DC11BFCE0E40D47FEF520E6B500D0ED03
S1130130902E0300943577050080841E080000206B
S11301404E0A000000C80C333333330F986E128309
S11301501141EF8D2114893BE65516CFFEE6DB18DD
S1130160D1844B381BF77C1D901DA4BBE4242032A2
S113017084725E228100C9F124ECA1E53D274E4141
S11301804E494E495459494E46CDCCCC3D0AD7230D
S11301903C17B7D13877CC2B329595E6241FB14F55
S11301A00A000020410000C84200401C4620BCBE9A
S11301B04CCA1B0E5AAEC59D740011241FBECFEF4E
S11301C0CDBFDFE3DEBF18E3A0E0B8E3E5E6FAE283
S11301D002C005900D92A831B107D9F729E3A8E12F
S11301E0B8E301C01D92A334B207E1F70E94050AE7
S11301F00C9410150C9400001F920F920FB60F92DE
S113020011248F939F93AF93BF93EF93FF938091A8
S1130210923890919338892BE9F580910008809366
S1130220A1388332B1F49091A038911112C081E0C9
S11302308093A03880E2E3ECF8E3DF011D928A9515
S1130240E9F7E091A038F0E0EE53F74C83E28083C5
S113025023C09091A0389923D1F0E091A038F0E028
S1130260ED53F74C80839091A0389F5F9093A03812
S11302709091A038903210F01092A0388D3061F433
S113028081E090E0809392389093933805C0109267
S1130290A03802C080910008E4E0F8E08081806822
S11302A08083FF91EF91BF91AF919F918F910F90B8
S11302B00FBE0F901F9018951F920F920FB60F92BA
S11302C011242F933F934F935F936F937F938F9357
S11302D09F93AF93BF93EF93FF9387E199E30E94BA
S11302E0440BFF91EF91BF91AF919F918F917F91BB
S11302F06F915F914F913F912F910F900FBE0F908F
S11303001F9018951F920F920FB60F9211248F937E
S1130310EF93FF9381E080931638E3E4F1E080816A
S113032081608083FF91EF918F910F900FBE0F90AA
S11303301F90189561157105B1F0FC01680F791FC4
S11303408FEF91E32191822728E030E088231CF489
S1130350880F892701C0880F21503109B9F7E617A2
S1130360F70781F708958FEF08959C01E0E0F0E12D
S1130370928191FDFDCFF901FC5E808108959C017D
S1130380E0E0F0E1928191FDFDCFF901FC5E608334
S11303908DE984BF83E0809300100895CF92DF92AB
S11303A0EF92FF920F931F93CF93DF931092FF3836
S11303B010920039109201391092023980E090E0D5
S11303C0A0E8BFE380930F3990931039A0931139BB
S11303D0B09312391092BB381092BC381092BD38C9
S11303E01092BE381092F7381092F8381092F938FB
S11303F01092FA388093FB389093FC38A093FD3820
S1130400B093FE38109213391092143910921539A2
S1130410109216390F2EF4E2EF2EFAEAFF2EF02D89
S113042009E019E3C0E0D0E0F70161917F01F80130
S113043061938F012196CE010E94BF01C630D10580
S113044099F70F2EFBE2EF2EFAEAFF2EF02D03E0D0
S113045019E3CFE1D0E0F70161917F01F8016193E5
S11304608F01CE010E94BF012196C532D10599F7B3
S1130470ADC0F60180819181A281B3818093BF38A0
S11304809093C038A093C138B093C238F8016191F9
S11304908F01CE010E94BF012196CB30D10549F7CF
S11304A00FEB18E30F2EFFE0CF2EF9E3DF2EF02D34
S11304B0F60180819181A281B3818093BF389093AA
S11304C0C038A093C138B093C238F80161918F014C
S11304D0CE010E94BF012196CF30D10549F70FEB21
S11304E018E30F2EFBEBCF2EF8E3DF2EF02DF601F1
S11304F080819181A281B3818093BF389093C03869
S1130500A093C138B093C238F80161918F01CE0134
S11305100E94BF012196C331D10549F70FEB18E3BF
S11305200F2EF7EFCF2EF8E3DF2EF02DF6018081AA
S11305309181A281B3818093BF389093C038A093F6
S1130540C138B093C238F80161918F01CE010E9485
S1130550BF012196C731D10549F70FEB18E30F2EE0
S1130560FBEFCF2EF8E3DF2EF02DF6018081918191
S1130570A281B3818093BF389093C038A093C138CF
S1130580B093C238F80161918F01CE010E94BF017E
S11305902196CB31D10549F703E119E3F8018081B4
S11305A09181A281B3818093BF389093C038A09386
S11305B0C138B093C238F70161917F01CE010E9426
S11305C0BF012196CF31D10549F71CC01092A8383C
S11305D01092A9381092A6381092A7381092A43815
S11305E01092A5380F2EFFEBEF2EF8E3FF2EF02D1F
S11305F08701C7E0D0E00F2EFFEFCF2EF8E3DF2E08
S1130600F02D37CFDF91CF911F910F91FF90EF9095
S1130610DF90CF90089580E090E00E94B5010895A6
S1130620EF92FF920F931F93CF93DF930F2EF9E076
S1130630EF2EF9E3FF2EF02D03E019E3C0E0D0E044
S11306402196CE010E94B501D7018D937D01CE0183
S11306504E960E94B501F80181938F01C630D105F1
S113066079F7E3E0F9E3808190E0C0978093A838BC
S11306709093A938818190E0C0978093A638909395
S1130680A738828190E0C0978093A4389093A538CE
S113069084E0EFEBF8E3DF011D928A95E9F710920D
S11306A09F3880919F388430B0F4C0919F388091F6
S11306B09F3890E007960E94B501EC2FF0E0E154DA
S11306C0F74C808380919F388F5F80939F3880910F
S11306D09F38843050F3EFEBF8E380819181A2815D
S11306E0B3818093FF3890930039A0930139B0937C
S11306F0023984E0DF011D928A95E9F710929F3850
S113070080919F388430B0F4C0919F3880919F3895
S113071090E00B960E94B501EC2FF0E0E154F74C09
S1130720808380919F388F5F80939F3880919F381A
S1130730843050F3EFEBF8E380819181A281B3819F
S113074080930F3990931039A0931139B0931239D3
S113075084E0DF011D928A95E9F710929F38809119
S11307609F388430B0F4C0919F3880919F3890E0D6
S11307700F960E94B501EC2FF0E0E154F74C808312
S113078080919F388F5F80939F3880919F38843009
S113079050F3EFEBF8E380819181A281B3818093E0
S11307A0BB389093BC38A093BD38B093BE3884E076
S11307B0DF011D928A95E9F710929F3880919F3846
S11307C08430B0F4C0919F3880919F3890E0439674
S11307D00E94B501EC2FF0E0E154F74C8083809146
S11307E09F388F5F80939F3880919F38843050F377
S11307F0EFEBF8E380819181A281B3818093F73894
S11308009093F838A093F938B093FA3884E0DF0174
S11308101D928A95E9F710929F3880919F38843011
S1130820B0F4C0919F3880919F3890E047960E9421
S1130830B501EC2FF0E0E154F74C808380919F38B0
S11308408F5F80939F3880919F38843050F3EFEB13
S1130850F8E380819181A281B3818093FB389093E6
S1130860FC38A093FD38B093FE3884E0DF011D927C
S11308708A95E9F710929F3880919F388430B0F4BC
S1130880C0919F3880919F3890E04B960E94B501AB
S1130890EC2FF0E0E154F74C808380919F388F5F18
S11308A080939F3880919F38843050F38091BF3873
S11308B09091C038A091C138B091C2388093133957
S11308C090931439A0931539B0931639DF91CF91D1
S11308D01F910F91FF90EF900895CF93DF931F9294
S11308E0CDB7DEB7E1E0F2E08081806180838BE008
S11308F08983298140EC60E178E087E199E30E94F3
S11309006A0A0F90DF91CF910895E7EEF8E381E250
S1130910808380E3818322E0AF016AE487E199E385
S11309200E94C40A82EC92EA0197F1F700C008958C
S1130930CF93DF93EC01E7EEF8E380EE808311823E
S113094022E0AF016AE487E199E30E94C40A82ECE1
S113095092EA0197F1F700C043E06AE487E199E382
S11309600E94CA0A8DE890E20197F1F7000062E064
S113097070E08BE299E30E949A0190912D398913DA
S113098020C0E7E1F9E36489858970E0762F662762
S1130990680F711D80E090E00E94E40C20E030E0DC
S11309A04FE253E40E94770D20E03FEF4FE757E416
S11309B00E94720C20E030E044E352E40E94050CF3
S11309C004C06CE57FEF89E794E4688379838A83C4
S11309D09B83DF91CF9108958F929F92AF92BF92A4
S11309E0CF92DF92EF92FF920F931F93CF93DF93F7
S11309F02091963830919738232B51F44CE55FEFD2
S1130A0069E774E4FC014083518362837383D3C038
S1130A102091A4383091A53821153105A1F4E09135
S1130A209638F0919738EE0FFF1FEE0FFF1FEC5E24
S1130A30F74C4081518162817381FC014083518371
S1130A4062837383B8C07C0180919038909191380F
S1130A50892B09F464C0E901CC0FDD1FC20FD31F39
S1130A60D195C195D10980919638909197388C0F82
S1130A709D1F99230CF053C080919638909197381C
S1130A801816190604F500E010E0812C912C54018D
S1130A90F801EE0FFF1FEE0FFF1FE85EF74C2081F9
S1130AA0318142815381C501B4010E94060C4B017E
S1130AB05C010F5F1F4F809196389091973808170B
S1130AC0190734F305C000E010E0812C912C540187
S1130AD0C0909638D09097386E96CC0EDD1EFEE10D
S1130AE0CF16D1040CF056C0E601FE01EE0FFF1F35
S1130AF0EE0FFF1FE85EF74C208131814281538164
S1130B00C501B4010E94060C4B015C012196CE3153
S1130B10D10559F70C191D09025E1F4F3BC0C09146
S1130B209638D0919738C901880F991F280F391F1B
S1130B30C21BD30B12F4C0E0D0E0809196389091A0
S1130B409738C817D9070CF500E010E0812C912CD8
S1130B505401FE01EE0FFF1FEE0FFF1FE85EF74C7E
S1130B602081318142815381C501B4010E94060C68
S1130B704B015C010F5F1F4F219680919638909135
S1130B809738C817D9072CF305C000E010E0812C72
S1130B90912C5401B801110F880B990B0E94E60C9B
S1130BA09B01AC01C501B4010E94720CF701608382
S1130BB0718382839383DF91CF911F910F91FF9073
S1130BC0EF90DF90CF90BF90AF909F908F9008955B
S1130BD08F929F92AF92BF92CF92DF92EF92FF9249
S1130BE00F931F93CF93DF93809192389091933812
S1130BF0019709F0FDC346E050E062E37AEA84EC31
S1130C0098E30E949D12892B59F046E050E069E078
S1130C1079E384EC98E30E949D12892B09F0DFC3E9
S1130C208AE28093C3386091003870910138FB01E7
S1130C3001900020E9F73197AF01461B570B8AEC6E
S1130C4098E30E949D12892B09F087C08091A038F7
S1130C508A3009F082C01092AA38E091A038F0E0FE
S1130C60EE53F74C8DE3808383EE98E30E94EC040B
S1130C70C090E338D090E438E090E538F090E6385E
S1130C8020910F3930911039409111395091123916
S1130C90C701B6010E94770D2091FF3830910039C9
S1130CA040910139509102390E94060C4B015C01BC
S1130CB02091BB383091BC384091BD385091BE383A
S1130CC0C701B6010E94770DA70196010E94770D16
S1130CD09B01AC01C501B4010E94060C362FE72F1D
S1130CE0462F572F682F792F4093E3385093E438D9
S1130CF06093E5387093E6384091A0382091A0388D
S1130D009F938F93EF933F9389E39AEA9F938F93F3
S1130D1080E290E0841B91099F938F93822F90E04F
S1130D208D53974C9F938F930E94F1128093983820
S1130D30909399389091A038890F8093A03880912E
S1130D40A03890E080939A3890939B382DB73EB7A3
S1130D50265F3F4F2DBF3EBF11C360910A3870918B
S1130D600B38FB0101900020E9F73197AF01461BD6
S1130D70570B8AEC98E30E949D12892B81F4809191
S1130D80A0388A3061F481E08093AA388091A03839
S1130D9090E0019780939A3890939B38EFC26091CA
S1130DA0063870910738FB0101900020E9F731976C
S1130DB0AF01461B570B8AEC98E30E949D12892BC6
S1130DC009F0D5C08091A0388B3009F0D0C0E091F3
S1130DD0A038F0E0EF53F74C8081813408F4C8C2A6
S1130DE0E091A038F0E0EF53F74C8081843408F0B0
S1130DF0BFC21092AA38E091A038F0E0EE53F74C4D
S1130E008DE3808388E090E08093A2389093A338A8
S1130E10E091A038F0E0EF53F74C8081813489F4FD
S1130E208091FF3890910039A0910139B091023935
S1130E308093E3389093E438A093E538B093E63890
S1130E4031C0E091A038F0E0EF53F74C8081823458
S1130E5089F480910F3990911039A0911139B09192
S1130E6012398093E3389093E438A093E538B09333
S1130E70E63818C0E091A038F0E0EF53F74C8081D9
S1130E80833481F48091BB389091BC38A091BD38F3
S1130E90B091BE388093E3389093E438A093E5385A
S1130EA0B093E638C090E338D090E438E090E53869
S1130EB0F090E638C701B6019F7720E034E244E7BA
S1130EC059E40E94720D18161CF59091A038809177
S1130ED0A038FF92EF92DF92CF922EE33AEA3F934B
S1130EE02F9320E230E0291B31093F932F9390E0A8
S1130EF08D53974C9F938F930E94F112809398384F
S1130F00909399388DB79EB70A968DBF9EBF22C025
S1130F109091A0388091A038FF92EF92DF92CF9207
S1130F2021E43AEA3F932F9320E230E0291B310970
S1130F303F932F9390E08D53974C9F938F930E94F0
S1130F40F1128093983890939938EDB7FEB73A969A
S1130F50EDBFFEBF2091A0388091983890919938C8
S1130F60820F911D80939A3890939B3807C26091A9
S1130F700C3870910D38FB0101900020E9F731978E
S1130F80AF01461B570B8AEC98E30E949D12892BF4
S1130F9009F053C08091A0388A3009F04EC01092F5
S1130FA0AA3886E090E08093A2389093A338E09129
S1130FB0A038F0E0EE53F74C8DE3808310929F3815
S1130FC080919F3890E006976CF5C0919F3880918E
S1130FD09F3890E04F960E94B501EC2FF0E0ED5F52
S1130FE0F64C8083E091A03880919F38A0919F387F
S1130FF0F0E0ED53F74CE80FF11DB0E0AD5FB64CF7
S11310008C91808380919F388F5F80939F388091EB
S11310109F382091A2383091A33890E0821793072B
S1131020A4F202C026E030E08091A038280F311DE0
S113103020939A3830939B38A1C160910E387091F7
S11310400F38FB0101900020E9F73197AF01461BEF
S1131050570B8AEC98E30E949D12892B09F078C003
S11310608091AA38813009F073C08091CC388154C2
S1131070833008F07DC11092AA388EEC98E30E9468
S1131080B6116093E3387093E4388093E538909315
S1131090E6382091CC38213451F46093FF387093B2
S11310A000398093013990930239C0E019C0223489
S11310B051F460930F3970931039809311399093E0
S11310C01239C4E00DC0233451F46093BB387093DB
S11310D0BC388093BD389093BE38C8E001C0C0E0EE
S11310E08091E3389091E438A091E538B091E638E6
S11310F08093BF389093C038A093C138B093C2385E
S113110010929F3880919F388430C8F4D0E027969D
S1131110E0919F3880919F38F0E0E154F74C608172
S11311209E01280F311DC9010E94BF0180919F3883
S11311308F5F80939F3880919F38843048F38091EB
S1131140A03890E0019780939A3890939B3816C109
S11311506091103870911138FB0101900020E9F77B
S11311603197AF01461B570B8AEC98E30E949D12FE
S1131170892BE9F58091A0388A30C9F51092AA38F4
S113118086E090E08093A2389093A338E091A03851
S1131190F0E0EE53F74C8DE3808310929F388091FA
S11311A09F3890E00697D4F4E091A03880919F385E
S11311B0A0919F38F0E0ED53F74CE80FF11DB0E03B
S11311C0A75FB64C8C91808380919F388F5F80930A
S11311D09F3880919F3890E0069734F38091A0382F
S11311E090E0069680939A3890939B38C7C060919C
S11311F0123870911338FB0101900020E9F7319700
S1131200AF01461B570B8AEC98E30E949D12892B71
S113121009F047C08091A038813109F042C0809123
S1131220AA388130F1F51092AA388091CD3890ED2A
S1131230980F9B3208F09CC08A53873008F498C0FA
S1131240EEECF8E323ED38E3819190ED980F9B32B7
S113125008F08EC08A53873008F48AC0E217F30777
S113126099F70F2EFDECCF2EF8E3DF2EF02D09E0D9
S113127019E3C0E0D0E0F60161916F012196F80115
S113128061938F01CE010E94BF01C630D10599F749
S11312908091A03890E0019780939A3890939B387E
S11312A06DC06091143870911538FB0101900020D5
S11312B0E9F73197AF01461B570B8AEC98E30E947C
S11312C09D12892B09F054C08091A038813109F016
S11312D04FC08091AA38813009F04AC01092AA38D0
S11312E08091CD3880538A3008F042C0EEECF8E3A8
S11312F023ED38E3819180538A30D0F52E173F07D0
S1131300C9F70F2EFDECCF2EF8E3DF2EF02D03E00E
S113131019E3CFE1D0E0F60161916F01F801619327
S11313208F01CE010E94BF012196C532D10599F7E4
S11313308091A03890E0019780939A3890939B38DD
S1131340E3E0F9E3808190E0C0978093A83890931C
S1131350A938818190E0C0978093A6389093A738EC
S1131360828190E0C0978093A4389093A53806C0FA
S113137080919C3890919D380197A1F510929C38EA
S113138010929D388091A6389091A7380097E1F08B
S113139010929E3820919E3830E028173907A4F423
S11313A082E693E00197F1F700C080919E388F5F49
S11313B080939E3880919E3890E02091A638309199
S11313C0A7388217930764F34091A8385091A9383D
S11313D060919A3883EC98E30E94A80B03C01092A2
S11313E0A03806C01092A038109292381092933808
S11313F0DF91CF911F910F91FF90EF90DF90CF90ED
S1131400BF90AF909F908F90089510924701E1E4B0
S1131410F1E0808182FDFDCF80E090E880934A0175
S113142090934B01E0E4F1E081E0828380830E94A9
S11314300B03813039F061E080E090E00E94BF014D
S11314400E94CE010E9410030E945D0B0E946D0455
S11314500E9485047894C1E0D0E00E94E805809160
S113146016388823D1F310921638809196389091CB
S113147097384E9744F01092963810929738C0934C
S11314809038D09391382091943830919538809148
S11314909638909197382817390744F480919638F4
S11314A0909197388093943890939538809196389A
S11314B0909197389C012F5F3F4F2093963830933B
S11314C09738880F991F880F991F885E974C0E9440
S11314D09804C3CFFC01608371834160DB011396E0
S11314E04C93A081B18116962C930190F081E02D4C
S11314F081E0858308950F93CF93DF93EC0122312C
S1131500C0F50131C0F588A5811137C081E088A7F5
S113151019A6660F6A832223A1F0E42FF52F6FEF3B
S1131520620F70E06F5F7F4F40E050E09191DE0109
S1131530A40FB51F13969C934F5F5F4F4617570731
S1131540A9F72CA30DA31EA21FA28CA1882339F0F6
S11315508A818E7FE881F981878381E011C08DA122
S1131560882369F08A818160E881F981878381E039
S113157007C080E005C080E003C080E001C081E0D6
S1131580DF91CF910F9108950F9300E00E947B0AA1
S11315900F9108950F93042F20E040E050E00E9443
S11315A07B0A0F910895FC01A081B18115969C914D
S11315B0159792FF03C084E081A702C083E081A74E
S11315C0986015969C9310A60895CF93DF93FC0121
S11315D094A125A1A081B18115968C91159784FFC2
S11315E007C083E014968C9385E081A710A61CC0E5
S11315F086A1891758F486A1EF01C80FD11D8B81EC
S113160018968C9386A18F5F86A30EC087A182173C
S113161028F48281816017968C9306C083E0149627
S11316208C9381E081A710A6DF91CF910895FC01EE
S113163087A1803170F4A081B18118968C9197A113
S1131640DF01A90FB11D54968C9387A18F5F87A3E7
S113165008C0A081B18183E014968C9382E081A7B5
S113166010A695A187A1891730F40190F081E02D8F
S113167082E084830895A081B18187E014968C93DD
S113168081E081A710A60895DC01ED91FC912581EC
S1131690322F3C7019F00E94D30A089526FF03C02C
S11316A00E94E50A089522231CF40E94170B089552
S11316B026E0FC0121A710A60895E0E2F4E0808171
S11316C084608083A4E2B4E08C9184608C938081F4
S11316D0877F808380818160808385E0809309088F
S11316E08CE680930808E5E0F8E0808181608083DF
S11316F080818068808380EC8093060883E08093F7
S11317000708E4E0F8E08081807880830895E4E0CD
S1131710F8E0908195FFFDCF8093020808958A3008
S113172010F4805D0895895C08951F93CF93DF932F
S1131730182FEB0182958F700E948F0B8883812F65
S11317408F700E948F0B8983DF91CF911F91089531
S1131750AF92BF92CF92DF92EF92FF920F931F93BB
S1131760CF93DF9300D0CDB7DEB74130510519F0E8
S113177061112BC03AC06623C9F08C016150262F39
S113178030E02F5F3F4F7C01E20EF31EC12CD12CC1
S11317905801F80181918F010E94870BF501808126
S11317A0C80ED11CE016F10699F702C0C12CD12C49
S11317B0BE016F5F7F4F8C2D0E94950B89810E9423
S11317C0870B8A810E94870B10C08C01615070E0E6
S11317D06F5F7F4F7C01E60EF71EF80181918F0148
S11317E00E94870B0E151F05C1F78DE00E94870B21
S11317F00F900F90DF91CF911F910F91FF90EF9079
S1131800DF90CF90BF90AF9008955058BB27AA2780
S11318100E941D0C0C94380D0E942A0D38F00E9471
S1131820310D20F039F49F3F19F426F40C94270D60
S11318300EF4E095E7FB0C94210DE92F0E94490D6D
S113184058F3BA17620773078407950720F079F4F1
S1131850A6F50C946B0D0EF4E0950B2EBA2FA02D6B
S11318600B01B90190010C01CA01A0011124FF2749
S1131870591B99F0593F50F4503E68F11A16F04044
S1131880A22F232F342F4427585FF3CF4695379543
S11318902795A795F0405395C9F77EF41F16BA0B08
S11318A0620B730B840BBAF09150A1F0FF0FBB1FB6
S11318B0661F771F881FC2F70EC0BA0F621F731FFF
S11318C0841F48F4879577956795B795F7959E3F5C
S11318D008F0B0CF9395880F08F09927EE0F9795ED
S11318E0879508950E94860C0C94380D0E94310D42
S11318F058F00E942A0D40F029F45F3F29F00C941F
S1131900210D51110C946C0D0C94270D0E94490D5E
S113191068F39923B1F3552391F3951B550BBB271A
S1131920AA2762177307840738F09F5F5F4F220F5F
S1131930331F441FAA1FA9F335D00E2E3AF0E0E856
S113194032D091505040E695001CCAF72BD0FE2FA0
S113195029D0660F771F881FBB1F26173707480734
S1131960AB07B0E809F0BB0B802DBF01FF279358EC
S11319705F4F3AF09E3F510578F00C94210D0C9482
S11319806C0D5F3FE4F3983ED4F3869577956795A5
S1131990B795F7959F5FC9F7880F911D9695879521
S11319A097F90895E1E0660F771F881FBB1F621740
S11319B073078407BA0720F0621B730B840BBA0BFE
S11319C0EE1F88F7E0950895E89409C097FB3EF46C
S11319D090958095709561957F4F8F4F9F4F992378
S11319E0A9F0F92F96E9BB279395F69587957795F6
S11319F06795B795F111F8CFFAF4BB0F11F460FFB6
S1131A001BC06F5F7F4F8F4F9F4F16C0882311F00D
S1131A1096E911C0772321F09EE8872F762F05C021
S1131A20662371F096E8862F70E060E02AF09A95BC
S1131A30660F771F881FDAF7880F9695879597F9B1
S1131A40089597F99F6780E870E060E008959FEF3C
S1131A5080EC089500240A94161617061806090641
S1131A60089500240A941216130614060506089510
S1131A70092E0394000C11F4882352F0BB0F40F498
S1131A80BF2B11F460FF04C06F5F7F4F8F4F9F4FD8
S1131A90089557FD9058440F551F59F05F3F71F05A
S1131AA04795880F97FB991F61F09F3F79F08795C1
S1131AB00895121613061406551FF2CF4695F1DF4A
S1131AC008C0161617061806991FF1CF86957105DA
S1131AD0610508940895E894BB2766277727CB010E
S1131AE097F908950E94E40D08F48FEF08950E9479
S1131AF08A0D0C94380D0E942A0D38F00E94310D85
S1131B0020F0952311F00C94210D0C94270D112431
S1131B100C946C0D0E94490D70F3959FC1F3950FC1
S1131B2050E0551F629FF001729FBB27F00DB11D5D
S1131B30639FAA27F00DB11DAA1F649F6627B00DED
S1131B40A11D661F829F2227B00DA11D621F739FD6
S1131B50B00DA11D621F839FA00D611D221F749FE4
S1131B603327A00D611D231F849F600D211D822F2B
S1131B70762F6A2F11249F5750409AF0F1F0882352
S1131B804AF0EE0FFF1FBB1F661F771F881F91507F
S1131B905040A9F79E3F510580F00C94210D0C9400
S1131BA06C0D5F3FE4F3983ED4F386957795679583
S1131BB0B795F795E7959F5FC1F7FE2B880F911DA9
S1131BC09695879597F90895990F0008550FAA0BD4
S1131BD0E0E8FEEF16161706E807F907C0F012163C
S1131BE01306E407F50798F0621B730B840B950B3F
S1131BF039F40A2661F0232B242B252B21F4089594
S1131C000A2609F4A140A6958FEF811D811D089530
S1131C10A0E1B0E0EEE0FEE00C9485117C011B0134
S1131C206A01FC0116821782838181FF44C39E01ED
S1131C302F5F3F4F3901F7019381F10193FD8591A6
S1131C4093FF81911F01882309F431C3853239F44C
S1131C5093FD859193FF81911F01853239F4B7017A
S1131C6090E00E94B51256016501E5CF10E0512CB9
S1131C70912CFFE1F915D8F08B3279F038F48032E9
S1131C8079F08332A1F4F92DF0612EC08D3261F028
S1131C90803369F4292D21602DC0392D3260932EB3
S1131CA0892D8460982E2AC0E92DE86015C097FC20
S1131CB02DC020ED280F2A3088F496FE06C03AE0A5
S1131CC0139F200D1124122F19C08AE0589E200D55
S1131CD01124522EE92DE0629E2E10C08E3231F472
S1131CE096FCE5C2F92DF0649F2E08C08C3621F4D1
S1131CF0292D2068922E02C0883641F4F10193FD0B
S1131D00859193FF81911F018111B3CF9BEB980FB4
S1131D10933020F4992D9061805E07C09BE9980F61
S1131D20933008F066C1992D9F7E96FF16E09F734D
S1131D30992E853619F49064992E08C0863621F4BC
S1131D40392F3068932E02C01111115097FE07C02D
S1131D501C3350F444244394410E27E00BC0183044
S1131D6038F027E017E005C027E09CE3492E02C0C5
S1131D70212F412C560184E0A80EB11CF60160818C
S1131D80718182819381042DA3010E94BA116C0197
S1131D90F981FC87F0FF02C0F3FF06C091FC06C086
S1131DA092FE06C000E205C00DE203C00BE201C0D2
S1131DB000E08C858C7019F001115AC29BC297FE09
S1131DC010C04C0CFC85F4FF04C08A81813309F4F3
S1131DD04A94141474F528E0241578F588E0482E04
S1131DE02CC096FC2AC0812F90E08C159D059CF098
S1131DF03CEFC3163FEFD30674F0892D8068982E0C
S1131E000AC0E2E0F0E0EC0FFD1FE10FF11D80815C
S1131E10803319F411501111F4CF97FE0EC04424ED
S1131E204394410E812F90E0C816D9062CF41C1956
S1131E3004C04424439401C010E097FE06C01C145F
S1131E401D0434F4C601019605C085E090E002C08B
S1131E5081E090E001110196112331F0212F30E04F
S1131E602F5F3F4F820F931F252D30E0821793077A
S1131E7014F4581A01C0512C892D897049F4552045
S1131E8039F0B70180E290E00E94B5125A94F7CF7E
S1131E90002329F0B701802F90E00E94B51293FC33
S1131EA009C0552039F0B70180E390E00E94B512D3
S1131EB05A94F7CF97FE4CC04601D7FE02C0812C3E
S1131EC0912CC60188199909F301E80FF91FED87D0
S1131ED0FE879601241931092F87388B012F10E0D2
S1131EE01195019511093FEF8316930629F4B70163
S1131EF08EE290E00E94B512C814D9044CF08F858C
S1131F0098898815990524F4ED85FE85818101C0A1
S1131F1080E3F1E08F1A91082D853E852F5F3F4FB6
S1131F202D873E87801691062CF0B70190E00E9421
S1131F30B512D9CFC814D90441F49A81963320F448
S1131F40953319F43C8534FF81E3B70190E04EC02A
S1131F508A81813319F09C859F7E9C87B70190E02C
S1131F600E94B512111105C094FC18C085E690E0DA
S1131F7017C0B7018EE290E00E94B5121E5F82E0A6
S1131F8001E0080FF301E80FF11D8081B70190E033
S1131F900E94B512802F0113F3CFE6CF85E490E0C1
S1131FA0B7010E94B512D7FC06C0C114D10441F494
S1131FB0EC85E4FF05C0D194C194D1088DE201C041
S1131FC08BE2B70190E00E94B51280E32AE0C216CA
S1131FD0D1042CF08F5FFAE0CF1AD108F7CFB70104
S1131FE090E00E94B512B701C601C0960E94B512D6
S1131FF054C1833631F0833779F0833509F056C004
S113200020C0560132E0A30EB11CF6018081898301
S113201001E010E0630112C05601F2E0AF0EB11C02
S1132020F601C080D18096FE03C0612F70E002C02B
S11320306FEF7FEFC6010E94AA128C01F92DFF7782
S113204014C0560122E0A20EB11CF601C080D1805A
S113205096FE03C0612F70E002C06FEF7FEFC601F0
S11320600E9492128C01F92DF0689F2EF3FD1AC084
S1132070852D90E008171907A8F4B70180E290E0D5
S11320800E94B5125A94F4CFF60197FC859197FEFD
S113209081916F01B70190E00E94B51251105A94DA
S11320A0015011090115110579F7F7C0843611F0B3
S11320B0893661F5560197FE09C024E0A20EB11CD1
S11320C0F60160817181828193810AC0F2E0AF0ED2
S11320D0B11CF60160817181072E000C880B990BED
S11320E0F92DFF769F2E97FF09C0909580957095E6
S11320F061957F4F8F4F9F4FF0689F2E2AE030E00D
S1132100A3010E942113C82EC6183FC0092D85378C
S113211021F40F7E2AE030E01DC0097F8F3691F054
S113212018F4883559F0C3C0803719F0883711F096
S1132130BEC0006104FF09C0046007C094FE08C06B
S1132140066006C028E030E005C020E130E002C0AF
S113215020E132E0560107FF09C084E0A80EB11C5B
S1132160F601608171818281938108C0F2E0AF0E33
S1132170B11CF6016081718180E090E0A3010E94AE
S11321802113C82EC6180F77902E96FE0BC0092D6A
S11321900E7FC11650F494FE0AC092FC08C0092DAB
S11321A00E7E05C0DC2C092D03C0DC2C01C0D12E11
S11321B004FF0DC0FE01EC0DF11D8081803311F48C
S11321C0097E09C002FF06C0D394D39404C0802FB3
S11321D0867809F0D39403FD11C000FF06C01C2DBE
S11321E0D51480F4150D1D190DC0D51458F4B7017C
S11321F080E290E00E94B512D394F7CFD51410F486
S11322005D1801C0512C04FF10C0B70180E390E0B9
S11322100E94B51202FF17C001FD03C088E790E0D9
S113222002C088E590E0B7010CC0802F867859F091
S113223001FF02C08BE201C080E207FD8DE2B7011D
S113224090E00E94B512C11638F4B70180E390E023
S11322500E94B5121150F7CFCA94F301EC0DF11D91
S11322608081B70190E00E94B512C110F5CF15C06E
S1132270F4E0F51560F584E0581A93FE1FC00111CF
S113228027C02C8523FF2AC00CE710E0392D3071BC
S1132290932EF8018491811124C0552009F4E4CCD3
S11322A0B70180E290E00E94B5125A94F6CFF7018C
S11322B08681978126C08FEF9FEF23C0B70180E20C
S11322C090E00E94B5125A945110F8CFD8CF512CF7
S11322D0B701802F90E00E94B512D3CF00E810E040
S11322E0D5CF91108052B70190E00E94B5120F5FD4
S11322F01F4FCFCF23E0251510F483E0BDCF512C21
S1132300C0CF6096E2E10C949E112F923F924F92BF
S11323105F926F927F928F929F92AF92BF92CF9271
S1132320DF92EF92FF920F931F93CF93DF93CDB77A
S1132330DEB7CA1BDB0BCDBFDEBF09942A88398800
S113234048885F846E847D848C849B84AA84B98449
S1132350C884DF80EE80FD800C811B81AA81B98155
S1132360CE0FD11DCDBFDEBFED01089566277727BF
S11323700C947F13283008F027E03327DA01990FF3
S1132380311D87FD916000966105710539F4326055
S11323902E5F3D9330E32A95E1F708959F3F30F097
S11323A080387105610509F03C5F3C5F3D939130D5
S11323B008F08068911DDF93CF931F930F93FF92D2
S11323C0EF92192F987F9695E92F96959695E90F98
S11323D0FF27E252FF4F99273327EE24FF24A7015A
S11323E0E70105900894079428F4360FE71EF81EB9
S11323F0491F511D660F771F881F991F0694A1F767
S11324000590079428F4E70EF81E491F561FC11DB6
S1132410770F881F991F661F0694A1F705900794EC
S113242028F4F80E491F561FC71FD11D880F991F86
S1132430661F771F0694A1F70590079420F4490FAF
S1132440561FC71FD81F990F661F771F881F069432
S1132450A9F784911095177041F0D695C7955795B3
S11324604795F794E7941A95C1F7E4E8F0E0689487
S11324701590159135916591959105907FE273952D
S1132480E118F10A430B560BC90BD009C0F7E10C54
S1132490F11E431F561FC91FD01D7EF4703311F463
S11324A08A95E6CFE894015030F0080F0AF400272B
S11324B0021708F4202F2395022F7A3328F079E3AA
S11324C07D932A95E9F710C07D932A9589F60694A1
S11324D097956795379517951794E118F10A430B6B
S11324E0560BC90BD00998F023957E9173957A33D6
S11324F008F070E37C932013B8F77E9170617D93AC
S113250030F0839571E37D9370E32A95E1F711240C
S1132510EF90FF900F911F91CF91DF91992787FD45
S113252090950895FC010590615070400110D8F712
S1132530809590958E0F9F1F0895FB01DC0104C0C8
S11325408D910190801921F441505040C8F7881BA7
S1132550990B0895FC016150704001900110D8F767
S1132560809590958E0F9F1F08950F931F93CF937F
S1132570DF93FB01238121FD03C08FEF9FEF2CC06C
S113258022FF16C0468157812481358142175307A3
S113259044F4A081B1819D012F5F3F4F208331839B
S11325A08C93268137812F5F3F4F2683378314C056
S11325B08B01EC01FB010084F185E02D0995892B49
S11325C0E1F6D80116968D919C911797019616966F
S11325D08D939C931797CE01DF91CF911F910F910B
S11325E00895AEE0B0E0E7EFF2E10C9493110D89A9
S11325F01E898F89988D26E02C8309831A8397FF7F
S113260002C080E090E801978D839E83AE01455E11
S11326105F4F698D7A8DCE0101960E94080E4D811F
S11326205E8157FD0AC02F813885421753070CF489
S11326309A01F801E20FF31F10822E96E4E00C9445
S1132640AC11FA01AA27283051F1203181F1E89424
S11326506F936E7F6E5F7F4F8F4F9F4FAF4FB1E091
S11326603ED0B4E03CD0670F781F891F9A1FA11D8C
S1132670680F791F8A1F911DA11D6A0F711D811D8D
S1132680911DA11D20D009F468943F912AE0269F52
S113269011243019305D3193DEF6CF010895462FB1
S11326A04770405D4193B3E00FD0C9F7F6CF462F92
S11326B04F70405D4A3318F0495D31FD40524193FB
S11326C002D0A9F7EACFB4E0A695979587957795B8
S11326D06795BA95C9F700976105710508959B013F
S11326E0AC010A2E06945795479537952795BA95C8
S11326F0C9F7620F731F841F951FA01D0895A0E0E2
S1132700B0E0E5E8F3E10C948B11EC016B01611589
S1132710710519F0FB01808391837E01FFEFEF1AAD
S1132720FF0A0881802F90E00E94CD14892B11F0BC
S1132730E701F3CF0D3239F47E0182E0E80EF11C9B
S1132740098111E008C00B3229F47E0192E0E90E00
S1132750F11C098110E0E701219743E050E066E8AD
S113276071E0CE010E94D614892BC1F4239645E072
S113277050E061E871E0CE010E94D614892B09F47F
S11327802596C114D10419F0F601C083D183111127
S1132790F6C060E070E080E89FE7FAC043E050E0F4
S11327A06EE771E0CE010E94D614892B59F4C1144E
S11327B0D10409F4E9C0F2E0EF0EF11CF601E08265
S11327C0F182E2C020E030E0A901C0E0D0E0F701EE
S11327D080EDA82EA00E89E08A1530F1912F926029
S11327E0B92E812F887012FF04C0811124C0219654
S11327F022C081112197A5E0B0E00E94F614DC010B
S1132800CB01880F991FAA1FBB1F9C01AD012A0D84
S1132810311D411D511D283989E93807480789E1CF
S1132820580748F0166006C09EEFA9120AC013FDAF
S113283040C01860B12E8FEFE81AF80A00811B2DF2
S1132840C6CF802F8F7D8534A1F580818D3211F420
S1132850106106C08B3221F0319661E070E004C053
S11328608181329662E070E080538A3018F0E61B72
S1132870F70B1FC060E070E060389CE079075CF4FF
S1132880DB01AA0FBB1FAA0FBB1F6A0F7B1F660FBA
S1132890771F680F711D3196DF0111978C9180535A
S11328A08A3050F314FF03C0719561957109C60F06
S11328B0D71F11FF08C0C114D10429F0CF0101971B
S11328C0F60180839183CA01B9010E94E40C212F8F
S11328D02370233019F04B015C0106C04B015C01ED
S11328E0B7FAB094B7F8B09420E030E0A901C5017C
S11328F0B4010E94EE14882309F43EC0D7FF06C039
S1132900D195C195D1090DE911E002C005EB11E0A3
S11329106801F8E1CF1AD10890E2E92EF12CCE1526
S1132920DF0574F0F8012591359145915491C50165
S1132930B4010E94770D4B015C01CE19DF09EFCF82
S113294004501109F594E7940C151D0541F78A2DDF
S1132950880F8B2D881F8F3F49F020E030E0A901BC
S1132960C501B4010E94EE14811106C082E290E018
S11329708093413990934239C501B40109C060E0A4
S113298070E080E89FEF04C060E070E080EC9FE7B7
S1132990CDB7DEB7ECE00C94A41191110C94F314B0
S11329A0803219F089508550C8F70895FB01DC0185
S11329B04150504088F08D9181341CF08B350CF4DB
S11329C0805E659161341CF06B350CF4605E861B8F
S11329D0611171F3990B0895881BFCCF0E94E40DDB
S11329E008F481E008959927882708950E94011525
S11329F0A59F900DB49F900DA49F800D911D11244F
S1132A000895A29FB001B39FC001A39F700D811DC3
S1132A101124911DB29F700D811D1124911D0895E3
S1072A20F894FFCF54
S1132A2430324130303700303030303030003939D2
S1132A343939393900252E336600256500256600A9
S1132A445244005254005248005243005245005725
S1132A544500525300534300524100534100535321
S1042A64006D
S1132A6544AA47AA4AAA4DAA50AA53AA56AA59AA99
S10B2A755CAA5FAA62AA010039
S9030000FC
